:020000040800F2
:100000000020002079080008C5080008C50800087D
:1000100000000000000000000000000000000000E0
:10002000000000000000000000000000C5080008FB
:100030000000000000000000C5080008F9050008E5
:10004000C5080008C5080008C5080008C50800085C
:10005000C5080008C5080008C5080008C50800084C
:10006000C5080008C5080008C5080008C50800083C
:10007000C5080008C5080008C5080008C50800082C
:10008000C5080008C508000800000000C5080008F1
:10009000C5080008C5080008C5080008C50800080C
:1000A000C5080008C5080008C5080008C5080008FC
:1000B000C508000800000000C50800080000000096
:1000C0005FF808F180B582B000AF78600A1CFB1CB5
:1000D0001A70FB1C1B78002B06D0084B074A51698D
:1000E0007A680A435A6106E0044B044A5269796807
:1000F000C9430A405A61BD4602B080BD00100240AB
:1001000080B582B000AF78600A1CFB1C1A70FB1C23
:100110001B78002B06D0084B074A91697A680A437E
:100120009A6106E0044B044A92697968C9430A401F
:100130009A61BD4602B080BD0010024080B584B017
:1001400000AF786039600023FB607B68DB68FB6090
:10015000FB680F4A1340FB603B681A683B681B79D9
:100160005B031A433B689B681A433B68DB681A438E
:100170003B681B691A433B685B691343FA68134386
:10018000FB607B68FA68DA60BD4604B080BDC0469B
:1001900003D2FFFF80B582B000AF78600A1CFB1C61
:1001A0001A70FB1C1B78002B06D07B689B68012211
:1001B0001A437B689A6005E07B689B6802221A43B9
:1001C0007B689A60BD4602B080BDC04680B586B0EF
:1001D00000AFF860B9607A6000237B61FB689A6ABF
:1001E000BB681A43FB689A627B69072293437B6171
:1001F0007A697B6813437B61FB687A695A61BD4603
:1002000006B080BD80B582B000AF78607B689B6827
:1002100004221A437B689A60BD4602B080BDC04686
:1002200080B582B000AF78607B681B6C9BB2181CF5
:10023000BD4602B080BDC04680B500AF5C4B1B78A8
:10024000012B5FD15A4B00221A7080239B02181C8D
:100250000121FFF737FF80235B01181C0121FFF705
:100260004FFF544B06221A60524B01221A71514B18
:1002700000229A714F4B01225A719023DA054D4B9F
:10028000101C191C01F09EFA4A4BA0221A60494B1F
:1002900002221A719023DA05464B101C191C01F03A
:1002A00091FA9023DB05181C0521002201F054FB74
:1002B0009023DB05181C0721002201F04DFB3E4B6B
:1002C00020229A813C4B00221A813B4B0022DA808B
:1002D000394BE022D2009A80374B0022DA81364B2C
:1002E000822252005A80344B802292005A81334A33
:1002F000314B101C191C00F0E7FA304B181C01217F
:1003000000F064FB0A2000F011FA9023DB05181CB2
:10031000062101F0F7FA642000F008FAE22000213B
:10032000012200F04DF8642000F000FAA020002126
:10033000012200F045F8C8200021012200F040F819
:1003400023200021012200F03BF88120002101221E
:1003500000F036F820200021012200F031F8FA20C8
:100360000021012200F02CF893200021012200F04E
:1003700027F8A2200021012200F022F8EE2000211F
:10038000012200F01DF815200021012200F018F8CC
:100390002F200021012200F013F8AF2000210122BC
:1003A00000F00EF800F06CFB00F05AF8BD4680BD7E
:1003B00000000020580000204400002000300140D0
:1003C00090B583B000AF041C081C111CFB1D221C3F
:1003D0001A70BB1D021C1A707B1D0A1C1A70902318
:1003E000DA05BB1D1B78101C04211A1C01F098FAB9
:1003F0007B1D1B78002B05D09023DB05181C0221E8
:1004000001F080FA154AFB1D1B78101C191C00F026
:10041000FDFAC046114B181C802100F00DFB031E95
:10042000012BF7D0C0460D4B181C022100F004FB35
:10043000031EF8D09023DB05181CA02101F062FAFE
:100440007B1D1B78002B05D09023DB05181C022197
:1004500001F04AFABD4603B090BDC04600300140ED
:1004600080B582B000AFB02000210122FFF7A8FFC5
:10047000002000210122FFF7A3FF1020002101220C
:10048000FFF79EFF9023DB05181C022101F03AFACA
:10049000BB1D00221A800DE0BB1D1B880C4AD35CDB
:1004A000181C01210022FFF78BFFBB1D1A88BB1D02
:1004B00001321A80BB1D1B88064A9342ECD9902357
:1004C000DB05181C022101F00FFABD4602B080BD09
:1004D000600000201F040000B0B582B000AF021C15
:1004E0003960FB1D1A70FB1D1B787F2B2FD92D4CFB
:1004F000FB1D1B781A1C0F231340083B9908294A3F
:10050000FB1D1B78181C0F230340083B9B08063378
:100510009B00D3185B68FA1D1278101C032202405E
:10052000D200101CFF228240D2431A403B689B013C
:10053000FF200340F81D0078051C03202840C00060
:1005400083401A438B1D9B00E3185A6026E0164C2B
:10055000FB1D1B785BB29B081349FA1D127852B23F
:100560009208C03292005258F91D0978081C0321E4
:100570000140C900081CFF218140C94311403A686D
:100580009201FF200240F81D0078051C032028403E
:10059000C00082400A43C0339B001A51BD4602B0DE
:1005A000B0BDC04600ED00E000E100E080B582B0E3
:1005B00000AF78607B680E4A934201D9012312E0B4
:1005C0000C4B7A681202120A013A5A6001235B420C
:1005D000181C0321FFF780FF064B00229A60054B91
:1005E00007221A600023181CBD4602B080BDC04619
:1005F000FFFFFF0010E000E090B583B000AFBC1D2E
:100600003D4B181CFFF70CFE031C23803A4B181CB3
:10061000FFF7F8FDBB1D1A88384B1B68D31A1A1256
:10062000364B1B68D218354B1A60354B1A68354B60
:100630001A60BB1D1A88314B1B68D21A304B1A60E6
:10064000304B1B68002B3CDA2D4B1B68002B38DD30
:100650002D4B1B78002B07D12C4B1A682C4B1A60A2
:10066000294B01221A702CE0284B1A68294B1A607A
:10067000284B1A68264B1B68D31A181C02F0FEF987
:10068000031C2548191C01F0EFFC031C1A1C234B0A
:100690001B68101C191C02F00BF8031C181C2049C5
:1006A00001F0D4FE031C1A1C1C4B1B68101C191CE7
:1006B00001F05EFB031C1A1C184B1A60124B00223F
:1006C0001A70184B1B780133DAB2164B1A70154B9F
:1006D0001B78272B07D1134B00221A70124B1B6873
:1006E0005A1C114B1A60094B1B685A1C074B1A60A5
:1006F000BD4603B090BDC04600240140200000204C
:1007000024000020280000202C00002030000020C1
:10071000340000203800002000401C471800002052
:100720006F12033B3C0000201C00002080B584B009
:1007300000AF7860074B1B68FB6000E0C046054BCC
:100740001A68FB68D21A7B689A42F7D3BD4604B098
:1007500080BDC0461C00002080B584B002AF80235D
:100760009B02181C0121FFF7ADFC80239B00181C85
:100770000121FFF7C5FC384B01221A60364B0022DD
:100780009A71354B0022DA71334B00225A71324B89
:1007900003221A719023DA052F4B101C191C01F04B
:1007A00011F82E4B00221A712C4B00221A612B4B90
:1007B00000229A60294B00221A60294A274B101CFC
:1007C000191CFFF7BBFC264B181C0121FFF7E2FCAC
:1007D000234B181C01210422FFF7F8FC214B1B6856
:1007E000181C214901F008F9031C181CFFF7DEFE54
:1007F000FFF722FD00F044F91C4A00230093101C6F
:1008000000210022002300F07DFA021CFB1D1A705B
:10081000174B1968FB1D1B789BB21AB2002300937B
:1008200000230193081C111C0022022300F01AFE71
:10083000021CFB1D1A70FB1D1B789BB20D491AB2DE
:1008400000230093081C111C0022002300F05AFA18
:10085000FFF706FECEE7C0465800002080040020C7
:100860000024014004000020409C0000D42B00081C
:1008700018000020E02B00080C488546002103E00A
:100880000B4B5B58435004310A480B4B42189A42B9
:10089000F6D30A4A02E0002313600432084B9A425E
:1008A000F9D300F0D9FEFFF757FFFEE70020002044
:1008B000A42F0008000000201800002018000020CD
:1008C00098040020FEE7000080B584B000AF786097
:1008D00039600E23FB1800221A800E23FB187A6859
:1008E00012881A800E23FB180E22BA181188C12212
:1008F00092010A401A803B681A883B68DB891343DF
:100900009AB23B68DB8813439AB23B681B89134356
:100910009AB23B685B8913439AB23B689B89134345
:1009200099B20E23FB180E22BA1812880A431A80B5
:100930007B680E22BA1812881A800E23FB187A6878
:1009400092881A800E23FB180E22BA1812881D49AD
:100950000A401A803B6899880E23FB180E22BA18A9
:1009600012880A431A807B680E22BA1812889A806D
:100970003B681A8A7B681A820E23FB187A681288F1
:100980001A800E23FB180E22BA18128804218A43FB
:100990001A803B6859880E23FB180E22BA18128859
:1009A0000A431A807B680E22BA1812881A807B6864
:1009B0009B8B9BB2044A13409AB27B689A83BD46D4
:1009C00004B080BDFFF0FFFFFFF7FFFF80B582B0EE
:1009D00000AF78600A1CFB1C1A70FB1C1B78002BF4
:1009E00008D07B681B889BB2402213439AB27B6875
:1009F0001A8007E07B681B889BB2402293439AB21F
:100A00007B681A80BD4602B080BDC04680B584B008
:100A100000AF78600A1CFB1C1A700023FB607B6827
:100A2000FB60FB680C33FB60FB68FA1C12781A70E1
:100A3000BD4604B080BDC04680B584B000AF7860CC
:100A40000A1CBB1C1A800F23FB1800221A707B683B
:100A50001B899BB2BA1C128813409BB2002B04D096
:100A60000F23FB1801221A7003E00F23FB1800224A
:100A70001A700F23FB181B78181CBD4604B080BDEC
:100A800080B500AF044A8423DB00101C00211A1C2F
:100A900002F05AF8BD4680BD6000002090B585B0D8
:100AA00000AF041C081C111CBB1D221C1A803B1D1E
:100AB000021C1A80FB1C0A1C1A70BB1D00229B5EC4
:100AC000832B0EDCBB1D00229B5E002B09DB3B1D34
:100AD00000229B5E3F2B04DC3B1D00229B5E002B13
:100AE00001DA01235CE03B1D00229B5EDB109BB220
:100AF0009BB2842253439AB2BB1D1B88D3189AB26F
:100B00000C23FB181A800C23FB1800229A5E0F237B
:100B1000FB1825498A5C1A70FB1C1B78002B19D125
:100B20003B1D00229B5E214A134004D5013B082255
:100B30005242134301339BB21BB201229A40131C51
:100B4000DAB20F23FB181B781343DAB20F23FB181A
:100B50001A701BE03B1D00229B5E144A134004D513
:100B6000013B08225242134301339BB21BB20122C4
:100B70009A40131CDBB2DB43D9B20F23FB181A785F
:100B80000B1C1340DAB20F23FB181A700C23FB184E
:100B900000229B5E044A0F2179180978D154002362
:100BA000181CBD4605B090BD600000200700008005
:100BB000B0B584B000AF051C0C1C101C191CBB1D6B
:100BC0002A1C1A803B1D221C1A80BB1C021C1A8086
:100BD0007B1C0A1C1A70BB1DBA1D1288203A1A8091
:100BE000BA1DBB1D1B88191C8900CB1813800E234E
:100BF000FB1800221A8075E00E23FB181B88052BBA
:100C00000BD8BB1D1A880E23FB181B88D3183C4A2F
:100C1000D25C0A23FB181A8003E00A23FB18002287
:100C20001A800C23FB1800221A804FE00A23FB18BD
:100C30001A880C23FB181B881A41131C012213402D
:100C40001FD03B1D1A880E23FB181B88D3189BB29C
:100C500098B2BB1C1A880C23FB181B88D3189BB2B4
:100C600099B22023FB181B78013B5A425341DBB257
:100C70001C1C02B20BB2101C191C221CFFF70EFF29
:100C80001DE03B1D1A880E23FB181B88D3189BB24E
:100C900098B2BB1C1A880C23FB181B88D3189BB274
:100CA00099B22023FB181B785A425341DBB21C1C1B
:100CB00002B20BB2101C191C221CFFF7EFFE0C2312
:100CC000FB181A880C23FB1801321A800C23FB181E
:100CD0001B88072BAAD90E23FB181A880E23FB1892
:100CE00001321A800E23FB181B88042B00D883E7DF
:100CF0003B1D00229B5E0533181CBD4604B0B0BDF1
:100D0000E42B000890B589B002AFF8600C1C101CF1
:100D1000191C0A23FB18221C1A800823FB18021C2A
:100D20001A80FB1D0A1C1A701623FB180A22BA1817
:100D300012881A801AE0FB681B7898B21623FB18F9
:100D40000021595E0823FB1800229A5EFB1D1C78C7
:100D50002823FB181B780093231CFFF729FF021C94
:100D60001623FB181A80FB680133FB60FB681B78B5
:100D7000002B05D01623FB1800229B5E832BDADDA7
:100D80001623FB1800229B5E181CBD4607B090BDC1
:100D900090B58BB002AFF8600C1C101C191C0A2314
:100DA000FB18221C1A800823FB18021C1A80FB1D4A
:100DB0000A1C1A701F23FB1800221A701423FB1838
:100DC000181C0021092201F0BFFE0A23FB18002293
:100DD0009B5E002B02DA02235B4230E3FB68002BB0
:100DE00007DAFB685B42FB601E23FB1801221A70C6
:100DF00006E0FB68002B03DD1E23FB1800221A709F
:100E0000FB68092B0BDCFB68DBB23033DAB214234E
:100E1000FB181A701F23FB1801221A70FAE2FB68F4
:100E2000632B1CDCFB68181C0A2100F075FE031CF8
:100E3000DBB23033DAB21423FB181A70FB68181CCB
:100E40000A2100F04FFF0B1CDBB23033DAB214235F
:100E5000FB185A701F23FB1802221A70DAE2FB6893
:100E6000D34A93422DDCFB68181C642100F054FE29
:100E7000031CDBB23033DAB21423FB181A70FB68A0
:100E8000181C0A2100F048FE031C181C0A2100F05F
:100E900029FF0B1CDBB23033DAB21423FB185A7073
:100EA000FB68181C0A2100F01DFF0B1CDBB230335D
:100EB000DAB21423FB189A701F23FB1803221A704E
:100EC000A8E2FB68BB4A93423FDCFB68181CFA238C
:100ED000990000F021FE031CDBB23033DAB2142398
:100EE000FB181A70FB68181C642100F015FE031C27
:100EF000181C0A2100F0F6FE0B1CDBB23033DAB20C
:100F00001423FB185A70FB68181C0A2100F004FE19
:100F1000031C181C0A2100F0E5FE0B1CDBB2303369
:100F2000DAB21423FB189A70FB68181C0A2100F02F
:100F3000D9FE0B1CDBB23033DAB21423FB18DA70A3
:100F40001F23FB1804221A7064E2FB689A4A93423A
:100F500050DCFB68181C994900F0DEFD031CDBB275
:100F60003033DAB21423FB181A70FB68181CFA230A
:100F7000990000F0D1FD031C181C0A2100F0B2FEFC
:100F80000B1CDBB23033DAB21423FB185A70FB6847
:100F9000181C642100F0C0FD031C181C0A2100F07D
:100FA000A1FE0B1CDBB23033DAB21423FB189A70AB
:100FB000FB68181C0A2100F0AFFD031C181C0A2155
:100FC00000F090FE0B1CDBB23033DAB21423FB18B6
:100FD000DA70FB68181C0A2100F084FE0B1CDBB2DF
:100FE0003033DAB21423FB181A711F23FB180522C1
:100FF0001A700FE2FB68724A934261DCFB68181CAE
:10100000704900F089FD031CDBB23033DAB21423DF
:10101000FB181A70FB68181C684900F07DFD031C62
:10102000181C0A2100F05EFE0B1CDBB23033DAB272
:101030001423FB185A70FB68181CFA23990000F05F
:101040006BFD031C181C0A2100F04CFE0B1CDBB2CC
:101050003033DAB21423FB189A70FB68181C642131
:1010600000F05AFD031C181C0A2100F03BFE0B1C6B
:10107000DBB23033DAB21423FB18DA70FB68181CC9
:101080000A2100F049FD031C181C0A2100F02AFE69
:101090000B1CDBB23033DAB21423FB181A71FB6875
:1010A000181C0A2100F01EFE0B1CDBB23033DAB232
:1010B0001423FB185A711F23FB1806221A70A9E18A
:1010C000FB68414A934200DD82E0FB68181C3F49FF
:1010D00000F022FD031CDBB23033DAB21423FB181C
:1010E0001A70FB68181C374900F016FD031C181C09
:1010F0000A2100F0F7FD0B1CDBB23033DAB2142307
:10110000FB185A70FB68181C2C4900F005FD031CE5
:10111000181C0A2100F0E6FD0B1CDBB23033DAB2FA
:101120001423FB189A70FB68181CFA23990000F02E
:10113000F3FC031C181C0A2100F0D4FD0B1CDBB2CD
:101140003033DAB21423FB18DA70FB68181C642100
:1011500000F0E2FC031C181C0A2100F0C3FD0B1C6C
:10116000DBB23033DAB21423FB181A71FB68181C97
:101170000A2100F0D1FC031C181C0A2100F0B2FD6A
:101180000B1CDBB23033DAB21423FB185A71FB6844
:10119000181C0A2100F0A6FD0B1CDBB23033DAB2BA
:1011A0001423FB189A711F23FB1807221A7031E1D0
:1011B000E70300000F2700009F86010010270000B2
:1011C0003F420F00A08601007F96980040420F002A
:1011D000FB689D4A934200DD83E0FB68181C9B4935
:1011E00000F09AFC031CDBB23033DAB21423FB1894
:1011F0001A70FB68181C964900F08EFC031C181C22
:101200000A2100F06FFD0B1CDBB23033DAB214237D
:10121000FB185A70FB68181C8E4900F07DFC031CFB
:10122000181C0A2100F05EFD0B1CDBB23033DAB271
:101230001423FB189A70FB68181C874900F06CFC9B
:10124000031C181C0A2100F04DFD0B1CDBB23033CF
:10125000DAB21423FB18DA70FB68181CFA23990021
:1012600000F05AFC031C181C0A2100F03BFD0B1C6B
:10127000DBB23033DAB21423FB181A71FB68181C86
:10128000642100F049FC031C181C0A2100F02AFD0F
:101290000B1CDBB23033DAB21423FB185A71FB6833
:1012A000181C0A2100F038FC031C181C0A2100F04D
:1012B00019FD0B1CDBB23033DAB21423FB189A7120
:1012C000FB68181C0A2100F00DFD0B1CDBB230334B
:1012D000DAB21423FB18DA711F23FB1808221A70E4
:1012E00098E0FB685D4A934200DD93E0FB68181CC0
:1012F0005B4900F011FC031CDBB23033DAB214237B
:10130000FB181A70FB68181C504900F005FC031C00
:10131000181C0A2100F0E6FC0B1CDBB23033DAB2F9
:101320001423FB185A70FB68181C494900F0F4FBA1
:10133000031C181C0A2100F0D5FC0B1CDBB2303357
:10134000DAB21423FB189A70FB68181C414900F0AC
:10135000E3FB031C181C0A2100F0C4FC0B1CDBB2CD
:101360003033DAB21423FB18DA70FB68181C3A49E0
:1013700000F0D2FB031C181C0A2100F0B3FC0B1C6C
:10138000DBB23033DAB21423FB181A71FB68181C75
:10139000FA23990000F0C0FB031C181C0A2100F07E
:1013A000A1FC0B1CDBB23033DAB21423FB185A71E8
:1013B000FB68181C642100F0AFFB031C181C0A21F9
:1013C00000F090FC0B1CDBB23033DAB21423FB18B4
:1013D0009A71FB68181C0A2100F09EFB031C181C64
:1013E0000A2100F07FFC0B1CDBB23033DAB214238D
:1013F000FB18DA71FB68181C0A2100F073FC0B1C47
:10140000DBB23033DAB21423FB181A721F23FB1835
:1014100009221A701423F8180A23FB180021595EB8
:101420000823FB1800229A5E3023FB181C78342313
:10143000FB181B780093231CFFF764FC031C181C8B
:10144000BD4609B090BDC046FFE0F5058096980006
:1014500040420F00A086010010270000FFC99A3B00
:1014600000E1F50590B58BB002AFF8600C1C101CC4
:10147000191C0A23FB18221C1A800823FB18021CC3
:101480001A80FB1D0A1C1A701B23FB1800221A70FD
:10149000F868002100F044FC031E09D01A23FB1851
:1014A00001221A70FB68802212065340FB6003E0A1
:1014B0001A23FB1800221A70F86801F077FA031C4F
:1014C0007B611A23FB181B78002B19D07B695842CB
:1014D0000A23FB180021595E0823FB1800229A5E9C
:1014E0003023FB181B7800933423FB181B780193DF
:1014F0000023FFF74DFC021C1B23FB181A7017E09A
:1015000078690A23FB180021595E0823FB18002282
:101510009A5E3023FB181B7800933423FB181B784A
:1015200001930023FFF734FC021C1B23FB181A70E5
:10153000FB1D1B78002B00D17AE0786901F056FA88
:10154000031CF868191C01F0B3F8031C3B61FB1D78
:101550001B78052B3BD89A00394BD3181B689F4644
:101560003869384900F072FF031C181C01F01EFA9C
:10157000031CFB612BE03869334900F067FF031C53
:10158000181C01F013FA031CFB6120E038692F4995
:1015900000F05CFF031C181C01F008FA031CFB613F
:1015A00015E038692A4900F051FF031C181C01F0AE
:1015B000FDF9031CFB610AE03869264900F046FF8B
:1015C000031C181C01F0F2F9031CFB61C0461B232D
:1015D000FB181B789BB219B20823FB1800229A5EF5
:1015E0003023FB181C783423FB181B7800932E2023
:1015F000231CFFF7DDFA021C1B23FB181A701B23A8
:10160000FB181B789BB2F86919B20823FB1800225B
:101610009A5E3023FB181B7800933423FB181B7849
:1016200001930023FFF7B4FB021C1B23FB181A7065
:101630001B23FB181B78181CBD4609B090BDC04683
:10164000CC2E0008000020410000C84200007A446F
:1016500000401C460050C34780B500AF1B4B1B4ADF
:10166000126801210A431A60184B184A5268184937
:101670000A405A60154B154A126816490A401A600A
:10168000124B124A126814490A401A600F4B0F4A53
:10169000526812490A405A600C4B0C4AD26A0F2118
:1016A0008A43DA62094B094A126B0D490A401A63F0
:1016B000064B064A526B01218A435A63034B0022B0
:1016C0009A6000F00FF8BD4680BDC0460010024091
:1016D0000CB8FFF8FFFFF6FEFFFFFBFFFFFFC0FFA8
:1016E000ACFEFFFF80B582B000AF00237B6000231B
:1016F0003B60314B304A1268802149020A431A602C
:101700002D4B1A6880239B0213403B607B6801339A
:101710007B603B68002B04D17A68A023DB019A42EE
:10172000EED1254B1A6880239B02134002D001237F
:101730003B6001E000233B603B68012B38D11F4B2D
:1017400011221A601C4B1C4A52685A601A4B1A4AE2
:1017500052685A60184B184A526819490A405A6030
:10176000154B154A5268882149030A435A60124BA7
:10177000114A1268802149040A431A60C0460E4B80
:101780001A6880239B041340F9D00B4B0A4A526815
:1017900003218A435A60084B074A526802210A43D0
:1017A0005A60C046044B5B680C221340082BF9D1E9
:1017B000BD4602B080BDC04600100240002002407D
:1017C000FFFFC0FF80B586B000AF786039600023AE
:1017D0007B6100233B610023FB6000237B617CE095
:1017E0007B6901229A40131C3B613B681B683A6984
:1017F0001340FB60FA683B699A426BD13B681B79E6
:10180000012B03D03B681B79022B34D17B689B688A
:101810007A695200111C03228A40D2431A407B6825
:101820009A607B689A683B685B79191C7B695B00EE
:1018300099400B1C1A437B689A607B689B889BB21B
:101840007A6992B2111C01228A4092B2D24392B2BA
:1018500013409AB27B689A807B689B889AB23B68F7
:101860009B79191C7B699BB299400B1C9BB213435B
:101870009AB27B689A807B681B687A695200111C57
:1018800003228A40D2431A407B681A607B681A6838
:101890003B681B79191C7B695B0099400B1C1A4340
:1018A0007B681A607B68DB687A6992B25200032118
:1018B00091400A1CD2431A407B68DA607B68DA6880
:1018C0003B68DB79191C7B695B0099400B1C1A4350
:1018D0007B68DA607B6901337B617B690F2B00D801
:1018E0007EE7BD4606B080BD80B582B000AF7860AF
:1018F0000A1CBB1C1A80BB1C1A887B689A61BD46F7
:1019000002B080BD80B582B000AF78600A1CBB1CFD
:101910001A807B68BA1C12881A85BD4602B080BD49
:1019200080B582B000AF7860081C111CBB1C021C83
:101930001A807B1C0A1C1A707B1C1B78002B04D09D
:10194000BB1C1A887B689A6103E07B68BA1C12880A
:101950001A85BD4602B080BD80B584B000AF786006
:10196000081C111CBB1C021C1A807B1C0A1C1A7050
:101970000023FB600023BB607B1C1B78BA1C128811
:1019800007210A4092009340FB60BB1C1B88DB08C8
:101990009BB2181CBB1C1B88DB089BB21A1C7B6803
:1019A00008329200D358BA1C128807210A409200CC
:1019B000111C0F228A40D2431A40111C7B68021C62
:1019C00008329200D150BB1C1B88DB089BB21A1C4A
:1019D0007B6808329200D258FB681343BB60BB1C83
:1019E0001B88DB089BB21A1C7B6808329200B9681E
:1019F000D150BD4604B080BD002243088B4274D351
:101A000003098B425FD3030A8B4244D3030B8B42FF
:101A100028D3030C8B420DD3FF22090212BA030C08
:101A20008B4202D31212090265D0030B8B4219D3E9
:101A300000E0090AC30B8B4201D3CB03C01A524109
:101A4000830B8B4201D38B03C01A5241430B8B4251
:101A500001D34B03C01A5241030B8B4201D30B033A
:101A6000C01A5241C30A8B4201D3CB02C01A524161
:101A7000830A8B4201D38B02C01A5241430A8B4224
:101A800001D34B02C01A5241030A8B4201D30B020D
:101A9000C01A5241CDD2C3098B4201D3CB01C01A27
:101AA000524183098B4201D38B01C01A5241430931
:101AB0008B4201D34B01C01A524103098B4201D31F
:101AC0000B01C01A5241C3088B4201D3CB00C01A8C
:101AD000524183088B4201D38B00C01A5241430804
:101AE0008B4201D34B00C01A5241411A00D2014629
:101AF000524110467047FFE701B5002000F0FCF8A6
:101B000002BDC0460029F7D003B5FFF775FF0EBC34
:101B10004243891A1847C04603460B437FD400222C
:101B200043088B4274D303098B425FD3030A8B4271
:101B300044D3030B8B4228D3030C8B420DD3FF22DB
:101B4000090212BA030C8B4202D31212090265D0A9
:101B5000030B8B4219D300E0090AC30B8B4201D35C
:101B6000CB03C01A5241830B8B4201D38B03C01AA3
:101B70005241430B8B4201D34B03C01A5241030B1A
:101B80008B4201D30B03C01A5241C30A8B4201D3CB
:101B9000CB02C01A5241830A8B4201D38B02C01A76
:101BA0005241430A8B4201D34B02C01A5241030AED
:101BB0008B4201D30B02C01A5241CDD2C3098B42D2
:101BC00001D3CB01C01A524183098B4201D38B014F
:101BD000C01A524143098B4201D34B01C01A5241F2
:101BE00003098B4201D30B01C01A5241C3088B4237
:101BF00001D3CB00C01A524183088B4201D38B0022
:101C0000C01A524143088B4201D34B00C01A5241C3
:101C1000411A00D201465241104670475DE0CA0F9A
:101C200000D04942031000D34042534000229C465A
:101C300003098B422DD3030A8B4212D3FC22890164
:101C400012BA030A8B420CD3890192118B4208D33A
:101C5000890192118B4204D389013AD0921100E09C
:101C60008909C3098B4201D3CB01C01A52418309B0
:101C70008B4201D38B01C01A524143098B4201D3DD
:101C80004B01C01A524103098B4201D30B01C01A08
:101C90005241C3088B4201D3CB00C01A5241830882
:101CA0008B4201D38B00C01A5241D9D243088B42D8
:101CB00001D34B00C01A5241411A00D2014663467B
:101CC00052415B10104601D34042002B00D54942DF
:101CD000704763465B1000D3404201B5002000F01E
:101CE0000BF802BD0029F8D003B5FFF715FF0EBCB5
:101CF0004243891A1847C0467047C0468446081CAC
:101D00006146FFE71FB500F05BFB002801D400210E
:101D1000C8421FBD10B500F0DFFA4042013010BDCF
:101D200010B500F04DFB002801DB002010BD0120A4
:101D300010BDC04610B500F043FB002801DD0020B7
:101D400010BD012010BDC04610B500F0EFFA00280C
:101D500001DC002010BD012010BDC04610B500F010
:101D6000E5FA002801DA002010BD012010BDC046B0
:101D7000F8B54A00430244004E02C50F240E281C49
:101D80009B09120EC90FB7098D4240D0A01A002836
:101D900000DC84E0002A1CD1002F5CD15A0704D05B
:101DA0000F221A40042A00D004338022D2041A40A1
:101DB000281C002A24D00134FF2C00D17BE09B0199
:101DC0005B0AE4B25B02E4055B0A2343C0071843E5
:101DD000F8BDFF2CE2D08022D204174301261B2835
:101DE00008DC391C20223E1CC140101A8640771E98
:101DF000BE410E439B1B5A0133D4281C5A07CFD136
:101E0000DB08FF2C1ED05B025B0AE4B2DAE7A11A02
:101E1000002957DD002A3AD0FF2CBFD08022D204FF
:101E2000174301261B2972DD9B195A01E5D50134A0
:101E3000FF2C00D187E001218A4A194013405B083A
:101E40000B43ABE7002B36D08022D20313435B0257
:101E50005B0AFF24B6E7013800283FD1DB1B5A019B
:101E6000CBD59B019E09301C00F050FE0538864002
:101E7000844223DC001B1F24321C431C201ADA403E
:101E80008640131C741EA6410024334386E7002FAE
:101E900000D183E70139002950D1DB19C5E70028BB
:101EA00020D1621CD2B2012A5EDDDE1B720128D570
:101EB000FE1A0D1CD7E7FF24002383E7694B241A81
:101EC00033406BE7002958D1621CD1B201293CDDB7
:101ED000FF2A37D0FB185B08141C5FE7FF2C00D0EB
:101EE0007CE75BE7002C1ED0FF2A23D08024E4048B
:101EF000404223431B285BDD0123FB1A141C0D1CED
:101F0000ADE7002EAFD100230020002478E73A1C73
:101F1000CA40944620223E1C511A8E406246771ECB
:101F2000BE41164380E7002B3ED0C0430028E4D0DA
:101F3000FF2ADFD13B1CFF240D1C2FE7FF2C00D014
:101F40006FE72BE7FF2400235AE7002C5AD1002B20
:101F50007FD0002F00D121E7DB195A0100D44CE7D4
:101F6000404A0134134019E7002C15D1002B2FD122
:101F7000002F5DD03B1C0D1C10E7002C21D1002B45
:101F800053D0C943002904D0FF2A4BD01B2957DD69
:101F90000123DB19141C48E7002B22D1002F4AD063
:101FA0003B1C0D1CFF24F9E63B1C141C0D1CF5E624
:101FB0001D1C2024C540201A8340581E83412B43FA
:101FC0009BE7FF2A2ED08024E40449422343DDE727
:101FD000002F00D1E2E6DA1B50013CD5FB1A0D1CA4
:101FE000DCE6FF24002F00D1D8E68022DB08D203F4
:101FF000134204D0FE08164201D1331C0D1CDB0035
:10200000FF24CBE6002B0DD0FF24002F00D1C5E626
:102010008022DB08D2031342F1D0FE081642EED133
:10202000331CECE73B1CFF24B8E63B1C141CB5E654
:10203000231C0020E4E6802300209B04FF24DFE62D
:102040001E1C2024CE40611A8B40591E8B41334305
:102050009FE73B1CA2E6131E00D0CEE60023002023
:10206000CEE6C046FFFFFFFBF0B556464D465F4645
:102070004446F0B443024500C70F83B08A465C0A69
:102080002E0EB94641D0FF2E26D080231B042343B9
:10209000DC00002398469B467F3E53465B025D0A68
:1020A00053465A00DB0F120E9A4639D0FF2A33D01E
:1020B00080231B042B43DD0000237F3A5146B21AD4
:1020C00046467940081C01921E430F2E00D976E047
:1020D0007E4AB6009659B746002C30D10823984660
:1020E000063B9B46D9E780230021DB03FF245B02EC
:1020F000E4055B0AC90723430B43181C03B03CBC2F
:1021000090469946A246AB46F0BD002C28D1042348
:102110009846033B9B46C0E7002D1FD1022302E0F7
:10212000002D11D10123B21A504646467840019243
:102130001E430F2E27D86649B60089598F460C23B7
:102140009846093B9B46A8E7281C00F0DFFC762256
:10215000431F52429D40121A0023AFE70323ADE70D
:10216000201C00F0D3FC431F9C4076235B421E1AC8
:10217000002398469B4690E70025D1469B465B4648
:102180004846022B6FD10121FF2401400023AEE716
:102190007E23019A5B429B1A1B2B6DDD01214B466E
:1021A000194000240023A2E78023DB031C4249D10D
:1021B0008023DB0323435B025B0A391C96E7630140
:1021C0006D01AB4237D389461A2001215B1B0124E4
:1021D0001E1C49005B00002E01DBAB4201D35B1BE0
:1021E000214301380028F3D1581E83410B431D1CA5
:1021F000019C7F34002CCBDD6B0704D00F232B40D8
:10220000042B00D004352B0104D5019A314B8032C8
:10221000141C1D40FE2C07DD4B460121FF241940F4
:10222000002364E7251CAAE701214A46AB015B0AAB
:10223000E4B211405BE7019A8946013A01921B2002
:102240000021C4E71D4207D023435B025B0A391C0F
:102250004CE700256302ABD58023DB032B435B02F5
:102260005B0A514642E7032B25D0012BC0D1012147
:102270000024014000233AE7291CD9402B1C019A75
:102280009E3293405D1EAB410B435A0704D00F2290
:102290001A40042A00D004335A0105D54B460121C7
:1022A00001241940002322E701214A469B015B0AD1
:1022B000114000241BE7802301214A46DB032B4306
:1022C0005B020A405B0A111C10E7C046E42E0008BE
:1022D000242F0008FFFFFFF7430270B542004C00B7
:1022E0005D0AC30F4802120E460A240EC90FFF2AC8
:1022F00005D0FF2C08D00120A2420BD070BD0120D8
:10230000002DFBD1FF2CF6D10120002EF6D10120AB
:10231000A242F3D1B542F1D18B4205D0002AEDD1D2
:10232000281C431E9841E9E70020E7E7F0B5430287
:102330004D024A0044005E0A240EC30F6D0A120EBD
:10234000C90FFF2C0DD0FF2A31D0002C0DD17742C0
:102350007741002A23D1002D21D10020002F0BD15D
:1023600007E0002E28D1FF2A21D0002A05D08B4279
:1023700007D0584201231843F0BD002DF9D08B42FD
:10238000F7D19442F5DC04DBAE42F2D80020AE4235
:10239000F2D25842434101205B421843ECE7002F40
:1023A000E5D048424141012049420843E4E7002D7D
:1023B00002D1002CCBD0DAE702204042DCE7C04655
:1023C0004302F0B542004C005E0AC30F4802120EF1
:1023D000450A240EC90FFF2A0FD0FF2C1AD0002A5D
:1023E00010D177427741002C29D0002F17D04842D6
:1023F00041410120494208430BE00220002E08D150
:10240000FF2C07D0002C0AD1002D08D158420123FF
:102410001843F0BD0220002DFBD1002AE1D08B42F1
:10242000F4D1A242F2DC04DBAE42EFD80020AE428F
:10243000EFD25842434101205B421843E9E7002DA7
:10244000D3D10020002FE4D1E0E7C046F0B55F46CD
:1024500056464D464446F0B445024600C40F83B08C
:102460000F1C6D0A360EA34645D0FF2E25D08023C3
:102470001B041D4300239A46ED007F3E01937B021F
:102480005B0A98467800FB0F000E994640D0FF2863
:1024900038D0802342461B041343DB0098460023B8
:1024A0007F384A46019F30186240411C1F430F2F5E
:1024B00069D87D4EBF00F659B746002D45D1082397
:1024C0000193063B9A46DAE793465346022B2FD1F7
:1024D0005B46012400251C40FF236D02DB056D0ACD
:1024E000E4071D432543281C03B03CBC9046994695
:1024F000A246AB46F0BD002D2CD104230193033B33
:102500009A46BCE743465A4253410322D31AC8E7CE
:1025100042460123002AC4D0404600F0F7FA424662
:10252000431F9A4076235B42181A90460023B8E76F
:10253000032B00D1ADE0012B00D08CE05B4654466C
:102540001C40E4B200230025C7E70C230193093B9C
:102550009A4694E7281C00F0D9FA7626431F9D403E
:1025600000237642361A01939A4688E78025002494
:10257000ED03FF23B1E74546CB469A46A5E745461E
:1025800093469A46A1E743462C041B0C9C46230C19
:10259000444626041C1C360C2F0C7443351C66461E
:1025A0007D4373437743EB18260C9E19B54203D93C
:1025B00080235B029C46674424043304240C1B19CB
:1025C0009D016C1EA5419B0E360C2B43BD19AD0120
:1025D0001D432B0104D5012368081D400543081C39
:1025E000031C7F33002B2CDD690704D00F21294009
:1025F000042900D00435290103D52C4B1D40031CB0
:102600008033FE2B17DD0124FF231440002564E7EF
:102610008020C003054209D04346034206D1454607
:1026200005436D026D0A4C46FF2356E705436D02D4
:102630006D0AFF2351E70124AD016D0ADBB214409E
:102640004BE77E235B421B1A1B2B07DD0124002373
:102650001440002541E7081C5A46C1E79E30291C5A
:102660008540D940681E85410D436B0704D00F2378
:102670002B40042B00D004356B0104D50124012329
:102680001440002529E70124AD016D0A1440002300
:1026900023E78023DB031D4301245B466D022340B7
:1026A0001C1C6D0AFF2318E7642F0008FFFFFFF7CB
:1026B000F8B54A00430244004D02C00F240E061C28
:1026C0009B09120EC90FAD09FF2A00D175E0012741
:1026D0007940884250D0A01A002800DC8FE0002A00
:1026E0001ED1002D00D075E05A0704D00F221A40E9
:1026F000042A00D0043380220120D2041A40304042
:10270000002A32D00134FF2C00D184E09B015B0A07
:10271000E4B25B02E4055B0A2343C0071843F8BD3B
:10272000FF2CE1D08022D20415431B287ADD01253D
:102730005B1B5A015DD59B019F09381C00F0E6F92F
:1027400005388740844269DC001B1F243A1C431C67
:10275000201ADA408740131C7C1EA74100243B430B
:10276000C2E7131E45D100230020DB08FF2C28D030
:102770005B025B0AE4B2CCE7A11A00295BDD002A08
:102780002ED0FF2CB0D08022D20415431B2974DC3C
:102790002F1C2022CF40511A8D40691E8D413D4390
:1027A0005B195A0125D50134FF2C74D001217E4AD2
:1027B000194013405B080B4396E7002D00D088E7D3
:1027C00085E7002B27D08022D20313435B025B0AEC
:1027D000FF249EE701380028AAD0FF2CA5D183E76B
:1027E000002D00D180E701390029D9D0FF2CCDD1AF
:1027F0007AE75A0700D079E701203040B5E7002892
:1028000025D1621CD2B2012A55DD5F1B7A012DD57C
:10281000EF1A0E1C91E7FF2400237AE7624B241A7B
:102820003B4061E7291C2022C140101A8540681EE8
:1028300085410D437CE7002946D1621CD1B20129B4
:102840002BDDFF2A26D0EB185B08141C4CE7002C6C
:1028500015D0FF2A1AD08024E404404223431B28C9
:102860004DDD0123EB1A141C0E1C62E7002F00D073
:1028700063E700230020002477E7012590E7002B81
:1028800039D0C0430028EDD0FF2AE8D12B1CFF240B
:102890000E1C29E7FF24002367E7002C5AD1002BE8
:1028A0007FD0002D00D11FE75B195A01A1D53E4A08
:1028B0000134134018E7002C15D1002B2FD1002D27
:1028C0005ED02B1C0E1C0FE7002C21D1002B54D006
:1028D000C943002904D0FF2A4CD01B2958DD01230D
:1028E0005B19141C5DE7002B23D1002D4BD02B1C52
:1028F0000E1CFF24F8E62B1C141C0E1CF4E61E1CF8
:102900002024C640201A8340581E83413343A9E740
:10291000FF2A2FD08024E40449422343DDE7002D21
:1029200000D1E1E65A1B500100D41AE7EB1A0E1C45
:10293000DAE6FF24002D00D1D6E68022DB08D203A0
:10294000134204D0ED08154201D12B1C0E1CDB00F4
:10295000FF24C9E6002B0DD0FF24002D00D1C3E6D3
:102960008022DB08D2031342F1D0ED081542EED1EC
:102970002B1CECE72B1CFF24B6E62B1C141CB3E627
:10298000231C0020F1E6802300209B04FF24ECE6BA
:102990001F1C2024CF40611A8B40591E8B413B43A2
:1029A0009EE72B1CA0E6C046FFFFFFFB4202510A38
:1029B0004200C30F120E00207E2A0DDD9D2A0CDC82
:1029C000802000040143952A0ADC9620821AD14017
:1029D0000A1C58424240D0187047034A9818FBE737
:1029E000963A91400A1CF4E7FFFFFF7F70B5041E82
:1029F00039D0C50F00D04442201C00F087F89E2338
:102A0000261C1B1A962B07DC082801DD0838844099
:102A10006402640AD8B21EE0992B0ADD0522211C4B
:102A2000121AD1400A1C011C1B318E40711E8E41AE
:102A30001643052801DD421F96400F4C34407207B3
:102A400004D00F221640042E00D0043462010ED4AC
:102A5000A401640AD8B26402C005640AED07044305
:102A60002C43201C70BD002500200024F3E7024BFE
:102A70001C409F231B1AEBE7FFFFFFFB10B5041E52
:102A800035D000F043F89E21091A962909DC082860
:102A900030DD021C231C083A93405B025B0AC8B27B
:102AA00020E099290CDD0522231C121AD3401A1CA0
:102AB000031C1B339C40231C5C1EA34113431C1CA2
:102AC000052801DD431F9C400F4B2340620704D0C3
:102AD0000F221440042C00D004335A010ED49B0161
:102AE0005B0AC8B25B025B0AC005184310BD002038
:102AF0000023F7E763025B0AC8B2F3E79F21024AAB
:102B0000091A1340EBE7C046FFFFFFFB1C2101231E
:102B10001B04984201D3000C10391B0A984201D3C0
:102B2000000A08391B09984201D30009043902A29E
:102B3000105C40187047C046040302020101010105
:102B4000000000000000000070B583073FD0541E55
:102B5000002A3BD0CEB2031C032503E0621E002CEA
:102B600034D0141C01335A1E16702B42F6D1032C9C
:102B700024D9FF250D402A0215432A0415430F2CA2
:102B800011D9261C103E3609013636011A1C9B1934
:102B9000156055609560D56010329342F8D10F22D0
:102BA0001440032C0AD9261FB6080136B6001A1C99
:102BB0009B1920C29342FCD103221440002C05D063
:102BC000C9B21C1919700133A342FBD170BD141C8A
:102BD000031CCCE74672657175656E63793A200017
:102BE000487A0000000000000000005F00000007BD
:102BF000000700147F147F14242A7F2A122313084D
:102C0000646236495522500005030000001C224131
:102C1000000041221C0014083E081408083E080861
:102C2000005030000008080808080060600000201C
:102C3000100804023E5149453E00427F4000426177
:102C40005149462141454B311814127F1027454503
:102C500045393C4A4949300171090503364949491A
:102C600036064949291E0036360000005636000057
:102C700008142241001414141414004122140802F0
:102C800001510906324979413E7E1111117E7F4979
:102C90004949363E414141227F4141221C7F4949F9
:102CA00049417F090909013E4149497A7F080808DD
:102CB0007F00417F41002040413F017F08142241B5
:102CC0007F404040407F020C027F7F0408107F3E1F
:102CD0004141413E7F090909063E4151215E7F097C
:102CE000192946464949493101017F01013F4040C8
:102CF000403F1F2040201F3F4038403F63140814CE
:102D00006307087008076151494543007F4141004E
:102D100002040810200041417F0004020102044027
:102D200040404040000102040020545454787F4841
:102D30004444383844444420384444487F38545448
:102D40005418087E0901020C5252523E7F080404B6
:102D50007800447D40002040443D007F102844001E
:102D600000417F40007C041804787C080404783813
:102D7000444444387C14141408081414187C7C0847
:102D80000404084854545420043F4440203C40402C
:102D9000207C1C2040201C3C4030403C4428102813
:102DA000440C5050503C4464544C4400083641009C
:102DB00000007F0000004136080010080810087865
:102DC00046414678FF0000000000000000030609AD
:102DD0000C101316191C1F2225282B2E31333639BF
:102DE0003C3F414447494C4E515355585A5C5E60F4
:102DF000626466686A6B6D6F7071737475767879EA
:102E00007A7A7B7C7D7D7E7E7E7F7F7F7F7F7F7FEA
:102E10007E7E7E7D7D7C7B7A7A797876757473711F
:102E2000706F6D6B6A68666462605E5C5A58555379
:102E3000514E4C494744413F3C393633312E2B28C3
:102E400025221F1C191613100C09060300FDFAF7A2
:102E5000F4F0EDEAE7E4E1DEDBD8D5D2CFCDCAC7A6
:102E6000C4C1BFBCB9B7B4B2AFADABA8A6A4A2A051
:102E70009E9C9A9896959391908F8D8C8B8A88873B
:102E8000868685848383828282818181818181811A
:102E900082828283838485868687888A8B8C8D8FC5
:102EA0009091939596989A9C9EA0A2A4A6A8ABAD4B
:102EB000AFB2B4B7B9BCBFC1C4C7CACDCFD2D5D8E1
:102EC000DBDEE1E4E7EAEDF0F4F7FAFDCE15000809
:102ED00060150008761500088C150008A21500087A
:102EE000B8150008BE21000886210008A2210008AC
:102EF0007A210008A2210008E6200008A22100088B
:102F00007A2100088621000886210008E6200008B2
:102F10007A21000824220008242200082422000824
:102F2000A821000886210008862100086E220008DA
:102F3000782100086E220008E62000086E220008B2
:102F4000782100088621000886210008E620000874
:102F500078210008242200082422000824220008E6
:102F600052220008862500087E2500087E250008DC
:102F700076250008C8240008C82400086C2500082D
:102F800076250008C82400086C250008C82400081D
:102F900076250008CA240008CA240008CA240008AC
:042FA00010260008EF
:102FA40001000000006CDC020000000000000000D2
:082FB4000102030406070809ED
:0400000508000000EF
:00000001FF
